{
  "_format": "hh-sol-artifact-1",
  "contractName": "Token",
  "sourceName": "contracts/Token.sol",
  "abi": [
    {
      "inputs": [
        {
          "internalType": "uint256",
          "name": "_reservePrice",
          "type": "uint256"
        },
        {
          "internalType": "uint256",
          "name": "_numBlocksAuctionOpen",
          "type": "uint256"
        },
        {
          "internalType": "uint256",
          "name": "_offerPriceDecrement",
          "type": "uint256"
        }
      ],
      "stateMutability": "nonpayable",
      "type": "constructor"
    },
    {
      "inputs": [
        {
          "internalType": "uint256",
          "name": "_bid",
          "type": "uint256"
        }
      ],
      "name": "bid",
      "outputs": [],
      "stateMutability": "payable",
      "type": "function"
    },
    {
      "inputs": [],
      "name": "bidWinner",
      "outputs": [
        {
          "internalType": "address",
          "name": "",
          "type": "address"
        }
      ],
      "stateMutability": "view",
      "type": "function"
    },
    {
      "inputs": [
        {
          "internalType": "address",
          "name": "",
          "type": "address"
        }
      ],
      "name": "bidprices",
      "outputs": [
        {
          "internalType": "uint256",
          "name": "",
          "type": "uint256"
        }
      ],
      "stateMutability": "view",
      "type": "function"
    },
    {
      "inputs": [],
      "name": "currPrice",
      "outputs": [
        {
          "internalType": "uint256",
          "name": "",
          "type": "uint256"
        }
      ],
      "stateMutability": "view",
      "type": "function"
    },
    {
      "inputs": [],
      "name": "fixedAmount",
      "outputs": [
        {
          "internalType": "uint256",
          "name": "",
          "type": "uint256"
        }
      ],
      "stateMutability": "view",
      "type": "function"
    },
    {
      "inputs": [],
      "name": "initPrice",
      "outputs": [
        {
          "internalType": "uint256",
          "name": "",
          "type": "uint256"
        }
      ],
      "stateMutability": "view",
      "type": "function"
    },
    {
      "inputs": [],
      "name": "numBlocksAuctionOpen",
      "outputs": [
        {
          "internalType": "uint256",
          "name": "",
          "type": "uint256"
        }
      ],
      "stateMutability": "view",
      "type": "function"
    },
    {
      "inputs": [],
      "name": "offerPriceDecrement",
      "outputs": [
        {
          "internalType": "uint256",
          "name": "",
          "type": "uint256"
        }
      ],
      "stateMutability": "view",
      "type": "function"
    },
    {
      "inputs": [],
      "name": "owner",
      "outputs": [
        {
          "internalType": "address",
          "name": "",
          "type": "address"
        }
      ],
      "stateMutability": "view",
      "type": "function"
    },
    {
      "inputs": [],
      "name": "reservePrice",
      "outputs": [
        {
          "internalType": "uint256",
          "name": "",
          "type": "uint256"
        }
      ],
      "stateMutability": "view",
      "type": "function"
    },
    {
      "inputs": [],
      "name": "startBlock",
      "outputs": [
        {
          "internalType": "uint256",
          "name": "",
          "type": "uint256"
        }
      ],
      "stateMutability": "view",
      "type": "function"
    }
  ],
  "bytecode": "0x60806040523480156200001157600080fd5b5060405162000da838038062000da8833981810160405281019062000037919062000258565b62000053678b4ba3b16789b7a360c01b6200021560201b60201c565b6200006f67c93d6be7986c61ee60c01b6200021560201b60201c565b826000819055506200009267252ce3a4db5a860560c01b6200021560201b60201c565b81600181905550620000b567172537082a86dbb360c01b6200021560201b60201c565b80600281905550620000d86731405e6a6ad847ab60c01b6200021560201b60201c565b600254600154620000ea9190620002e3565b600054620000f991906200032e565b6003819055506200011b676d219322637a24a360c01b6200021560201b60201c565b33600560006101000a81548173ffffffffffffffffffffffffffffffffffffffff021916908373ffffffffffffffffffffffffffffffffffffffff1602179055506200017867b2a026e33bb0bad060c01b6200021560201b60201c565b6000600960006101000a81548160ff021916908315150217905550620001af67c96fc37c17a259e060c01b6200021560201b60201c565b8143620001bd91906200032e565b600781905550620001df679f6bab49cbb221a260c01b6200021560201b60201c565b6101f4600481905550620002046747ff654c8fcc2bbd60c01b6200021560201b60201c565b6001600a8190555050505062000369565b50565b600080fd5b6000819050919050565b62000232816200021d565b81146200023e57600080fd5b50565b600081519050620002528162000227565b92915050565b60008060006060848603121562000274576200027362000218565b5b6000620002848682870162000241565b9350506020620002978682870162000241565b9250506040620002aa8682870162000241565b9150509250925092565b7f4e487b7100000000000000000000000000000000000000000000000000000000600052601160045260246000fd5b6000620002f0826200021d565b9150620002fd836200021d565b92508282026200030d816200021d565b91508282048414831517620003275762000326620002b4565b5b5092915050565b60006200033b826200021d565b915062000348836200021d565b9250828201905080821115620003635762000362620002b4565b5b92915050565b610a2f80620003796000396000f3fe60806040526004361061009c5760003560e01c80638a73cc4f116100645780638a73cc4f146101695780638da5cb5b146101a6578063b6add0f4146101d1578063d3642a88146101fc578063db2e1eed14610227578063ffd34ad5146102525761009c565b80630dd90303146100a15780633103ea62146100cc578063454a2ab3146100f757806348cd4cb11461011357806380b153f11461013e575b600080fd5b3480156100ad57600080fd5b506100b661027d565b6040516100c39190610677565b60405180910390f35b3480156100d857600080fd5b506100e1610283565b6040516100ee9190610677565b60405180910390f35b610111600480360381019061010c91906106c3565b610289565b005b34801561011f57600080fd5b506101286105d9565b6040516101359190610677565b60405180910390f35b34801561014a57600080fd5b506101536105df565b6040516101609190610731565b60405180910390f35b34801561017557600080fd5b50610190600480360381019061018b9190610778565b610605565b60405161019d9190610677565b60405180910390f35b3480156101b257600080fd5b506101bb61061d565b6040516101c89190610731565b60405180910390f35b3480156101dd57600080fd5b506101e6610643565b6040516101f39190610677565b60405180910390f35b34801561020857600080fd5b50610211610649565b60405161021e9190610677565b60405180910390f35b34801561023357600080fd5b5061023c61064f565b6040516102499190610677565b60405180910390f35b34801561025e57600080fd5b50610267610655565b6040516102749190610677565b60405180910390f35b60085481565b60015481565b61029d6714b03e22f31d969a60c01b61065b565b6102b1671679f19f8a3f7df560c01b61065b565b6102c567a51c316b8474ce3860c01b61065b565b6102d9677233f9356457c29460c01b61065b565b60075443111561031e576040517f08c379a000000000000000000000000000000000000000000000000000000000815260040161031590610802565b60405180910390fd5b6103326729f44147b772906f60c01b61065b565b6103466733e69a0141efb77460c01b61065b565b6001600a60008282546103599190610851565b925050819055506103746773c89e10d69531a160c01b61065b565b61038867fcce9da55a4d07ae60c01b61065b565b61039c675b4f028e5eb2a35960c01b61065b565b600960009054906101000a900460ff16156103ec576040517f08c379a00000000000000000000000000000000000000000000000000000000081526004016103e3906108d1565b60405180910390fd5b61040067b81c418d9faf595e60c01b61065b565b610414677b4c8b9a1f9efaf860c01b61065b565b600a5460015461042491906108f1565b6002546104319190610925565b60035461043e91906108f1565b60088190555061045867563f288b2415bb5c60c01b61065b565b61046c67b9f96c6b5ee910fb60c01b61065b565b61048067038d553ecdef249960c01b61065b565b6008548110156104c5576040517f08c379a00000000000000000000000000000000000000000000000000000000081526004016104bc906109d9565b60405180910390fd5b6104d967d3f31a4402d2675f60c01b61065b565b6104ed679a0779854dafc7b660c01b61065b565b61050167b804ce21de09d33760c01b61065b565b6008548111801561051f5750600960009054906101000a900460ff16155b156105c15761053867857fc09a373c1e3e60c01b61065b565b61054c67eebd13e3d5b907cd60c01b61065b565b33600960016101000a81548173ffffffffffffffffffffffffffffffffffffffff021916908373ffffffffffffffffffffffffffffffffffffffff1602179055506105a167c681f4f6e289ae7c60c01b61065b565b6001600960006101000a81548160ff0219169083151502179055506105d6565b6105d56737dbae326df540fb60c01b61065b565b5b50565b600a5481565b600960019054906101000a900473ffffffffffffffffffffffffffffffffffffffff1681565b60066020528060005260406000206000915090505481565b600560009054906101000a900473ffffffffffffffffffffffffffffffffffffffff1681565b60035481565b60025481565b60005481565b60045481565b50565b6000819050919050565b6106718161065e565b82525050565b600060208201905061068c6000830184610668565b92915050565b600080fd5b6106a08161065e565b81146106ab57600080fd5b50565b6000813590506106bd81610697565b92915050565b6000602082840312156106d9576106d8610692565b5b60006106e7848285016106ae565b91505092915050565b600073ffffffffffffffffffffffffffffffffffffffff82169050919050565b600061071b826106f0565b9050919050565b61072b81610710565b82525050565b60006020820190506107466000830184610722565b92915050565b61075581610710565b811461076057600080fd5b50565b6000813590506107728161074c565b92915050565b60006020828403121561078e5761078d610692565b5b600061079c84828501610763565b91505092915050565b600082825260208201905092915050565b7f426c6f636b2068617320616c726561647920656e6465642e0000000000000000600082015250565b60006107ec6018836107a5565b91506107f7826107b6565b602082019050919050565b6000602082019050818103600083015261081b816107df565b9050919050565b7f4e487b7100000000000000000000000000000000000000000000000000000000600052601160045260246000fd5b600061085c8261065e565b91506108678361065e565b925082820190508082111561087f5761087e610822565b5b92915050565b7f41756374696f6e2068617320616c726561647920656e6465642e000000000000600082015250565b60006108bb601a836107a5565b91506108c682610885565b602082019050919050565b600060208201905081810360008301526108ea816108ae565b9050919050565b60006108fc8261065e565b91506109078361065e565b925082820390508181111561091f5761091e610822565b5b92915050565b60006109308261065e565b915061093b8361065e565b92508282026109498161065e565b915082820484148315176109605761095f610822565b5b5092915050565b7f426964206d7573742062652067726561746572207468616e206f72206571756160008201527f6c20746f207468652063757272656e742070726963652e000000000000000000602082015250565b60006109c36037836107a5565b91506109ce82610967565b604082019050919050565b600060208201905081810360008301526109f2816109b6565b905091905056fea264697066735822122048a0eec3ec48b09a6725182570ca42c029e43ae9d8b5cf9a787bb994038c552164736f6c63430008110033",
  "linkReferences": {},
  "deployedLinkReferences": {}
}