{"contracts/Token.sol":{"Token":{"abi":[{"inputs":[{"internalType":"uint256","name":"_reservePrice","type":"uint256"},{"internalType":"uint256","name":"_numBlocksAuctionOpen","type":"uint256"},{"internalType":"uint256","name":"_offerPriceDecrement","type":"uint256"}],"stateMutability":"nonpayable","type":"constructor"},{"inputs":[{"internalType":"uint256","name":"_bid","type":"uint256"}],"name":"bid","outputs":[],"stateMutability":"payable","type":"function"},{"inputs":[],"name":"bidWinner","outputs":[{"internalType":"address","name":"","type":"address"}],"stateMutability":"view","type":"function"},{"inputs":[{"internalType":"address","name":"","type":"address"}],"name":"bidprices","outputs":[{"internalType":"uint256","name":"","type":"uint256"}],"stateMutability":"view","type":"function"},{"inputs":[],"name":"currPrice","outputs":[{"internalType":"uint256","name":"","type":"uint256"}],"stateMutability":"view","type":"function"},{"inputs":[],"name":"fixedAmount","outputs":[{"internalType":"uint256","name":"","type":"uint256"}],"stateMutability":"view","type":"function"},{"inputs":[],"name":"initPrice","outputs":[{"internalType":"uint256","name":"","type":"uint256"}],"stateMutability":"view","type":"function"},{"inputs":[],"name":"numBlocksAuctionOpen","outputs":[{"internalType":"uint256","name":"","type":"uint256"}],"stateMutability":"view","type":"function"},{"inputs":[],"name":"offerPriceDecrement","outputs":[{"internalType":"uint256","name":"","type":"uint256"}],"stateMutability":"view","type":"function"},{"inputs":[],"name":"owner","outputs":[{"internalType":"address","name":"","type":"address"}],"stateMutability":"view","type":"function"},{"inputs":[],"name":"reservePrice","outputs":[{"internalType":"uint256","name":"","type":"uint256"}],"stateMutability":"view","type":"function"},{"inputs":[],"name":"startBlock","outputs":[{"internalType":"uint256","name":"","type":"uint256"}],"stateMutability":"view","type":"function"}],"evm":{"bytecode":{"linkReferences":{},"object":"60806040523480156200001157600080fd5b5060405162000da838038062000da8833981810160405281019062000037919062000258565b62000053678b4ba3b16789b7a360c01b6200021560201b60201c565b6200006f67c93d6be7986c61ee60c01b6200021560201b60201c565b826000819055506200009267252ce3a4db5a860560c01b6200021560201b60201c565b81600181905550620000b567172537082a86dbb360c01b6200021560201b60201c565b80600281905550620000d86731405e6a6ad847ab60c01b6200021560201b60201c565b600254600154620000ea9190620002e3565b600054620000f991906200032e565b6003819055506200011b676d219322637a24a360c01b6200021560201b60201c565b33600560006101000a81548173ffffffffffffffffffffffffffffffffffffffff021916908373ffffffffffffffffffffffffffffffffffffffff1602179055506200017867b2a026e33bb0bad060c01b6200021560201b60201c565b6000600960006101000a81548160ff021916908315150217905550620001af67c96fc37c17a259e060c01b6200021560201b60201c565b8143620001bd91906200032e565b600781905550620001df679f6bab49cbb221a260c01b6200021560201b60201c565b6101f4600481905550620002046747ff654c8fcc2bbd60c01b6200021560201b60201c565b6001600a8190555050505062000369565b50565b600080fd5b6000819050919050565b62000232816200021d565b81146200023e57600080fd5b50565b600081519050620002528162000227565b92915050565b60008060006060848603121562000274576200027362000218565b5b6000620002848682870162000241565b9350506020620002978682870162000241565b9250506040620002aa8682870162000241565b9150509250925092565b7f4e487b7100000000000000000000000000000000000000000000000000000000600052601160045260246000fd5b6000620002f0826200021d565b9150620002fd836200021d565b92508282026200030d816200021d565b91508282048414831517620003275762000326620002b4565b5b5092915050565b60006200033b826200021d565b915062000348836200021d565b9250828201905080821115620003635762000362620002b4565b5b92915050565b610a2f80620003796000396000f3fe60806040526004361061009c5760003560e01c80638a73cc4f116100645780638a73cc4f146101695780638da5cb5b146101a6578063b6add0f4146101d1578063d3642a88146101fc578063db2e1eed14610227578063ffd34ad5146102525761009c565b80630dd90303146100a15780633103ea62146100cc578063454a2ab3146100f757806348cd4cb11461011357806380b153f11461013e575b600080fd5b3480156100ad57600080fd5b506100b661027d565b6040516100c39190610677565b60405180910390f35b3480156100d857600080fd5b506100e1610283565b6040516100ee9190610677565b60405180910390f35b610111600480360381019061010c91906106c3565b610289565b005b34801561011f57600080fd5b506101286105d9565b6040516101359190610677565b60405180910390f35b34801561014a57600080fd5b506101536105df565b6040516101609190610731565b60405180910390f35b34801561017557600080fd5b50610190600480360381019061018b9190610778565b610605565b60405161019d9190610677565b60405180910390f35b3480156101b257600080fd5b506101bb61061d565b6040516101c89190610731565b60405180910390f35b3480156101dd57600080fd5b506101e6610643565b6040516101f39190610677565b60405180910390f35b34801561020857600080fd5b50610211610649565b60405161021e9190610677565b60405180910390f35b34801561023357600080fd5b5061023c61064f565b6040516102499190610677565b60405180910390f35b34801561025e57600080fd5b50610267610655565b6040516102749190610677565b60405180910390f35b60085481565b60015481565b61029d6714b03e22f31d969a60c01b61065b565b6102b1671679f19f8a3f7df560c01b61065b565b6102c567a51c316b8474ce3860c01b61065b565b6102d9677233f9356457c29460c01b61065b565b60075443111561031e576040517f08c379a000000000000000000000000000000000000000000000000000000000815260040161031590610802565b60405180910390fd5b6103326729f44147b772906f60c01b61065b565b6103466733e69a0141efb77460c01b61065b565b6001600a60008282546103599190610851565b925050819055506103746773c89e10d69531a160c01b61065b565b61038867fcce9da55a4d07ae60c01b61065b565b61039c675b4f028e5eb2a35960c01b61065b565b600960009054906101000a900460ff16156103ec576040517f08c379a00000000000000000000000000000000000000000000000000000000081526004016103e3906108d1565b60405180910390fd5b61040067b81c418d9faf595e60c01b61065b565b610414677b4c8b9a1f9efaf860c01b61065b565b600a5460015461042491906108f1565b6002546104319190610925565b60035461043e91906108f1565b60088190555061045867563f288b2415bb5c60c01b61065b565b61046c67b9f96c6b5ee910fb60c01b61065b565b61048067038d553ecdef249960c01b61065b565b6008548110156104c5576040517f08c379a00000000000000000000000000000000000000000000000000000000081526004016104bc906109d9565b60405180910390fd5b6104d967d3f31a4402d2675f60c01b61065b565b6104ed679a0779854dafc7b660c01b61065b565b61050167b804ce21de09d33760c01b61065b565b6008548111801561051f5750600960009054906101000a900460ff16155b156105c15761053867857fc09a373c1e3e60c01b61065b565b61054c67eebd13e3d5b907cd60c01b61065b565b33600960016101000a81548173ffffffffffffffffffffffffffffffffffffffff021916908373ffffffffffffffffffffffffffffffffffffffff1602179055506105a167c681f4f6e289ae7c60c01b61065b565b6001600960006101000a81548160ff0219169083151502179055506105d6565b6105d56737dbae326df540fb60c01b61065b565b5b50565b600a5481565b600960019054906101000a900473ffffffffffffffffffffffffffffffffffffffff1681565b60066020528060005260406000206000915090505481565b600560009054906101000a900473ffffffffffffffffffffffffffffffffffffffff1681565b60035481565b60025481565b60005481565b60045481565b50565b6000819050919050565b6106718161065e565b82525050565b600060208201905061068c6000830184610668565b92915050565b600080fd5b6106a08161065e565b81146106ab57600080fd5b50565b6000813590506106bd81610697565b92915050565b6000602082840312156106d9576106d8610692565b5b60006106e7848285016106ae565b91505092915050565b600073ffffffffffffffffffffffffffffffffffffffff82169050919050565b600061071b826106f0565b9050919050565b61072b81610710565b82525050565b60006020820190506107466000830184610722565b92915050565b61075581610710565b811461076057600080fd5b50565b6000813590506107728161074c565b92915050565b60006020828403121561078e5761078d610692565b5b600061079c84828501610763565b91505092915050565b600082825260208201905092915050565b7f426c6f636b2068617320616c726561647920656e6465642e0000000000000000600082015250565b60006107ec6018836107a5565b91506107f7826107b6565b602082019050919050565b6000602082019050818103600083015261081b816107df565b9050919050565b7f4e487b7100000000000000000000000000000000000000000000000000000000600052601160045260246000fd5b600061085c8261065e565b91506108678361065e565b925082820190508082111561087f5761087e610822565b5b92915050565b7f41756374696f6e2068617320616c726561647920656e6465642e000000000000600082015250565b60006108bb601a836107a5565b91506108c682610885565b602082019050919050565b600060208201905081810360008301526108ea816108ae565b9050919050565b60006108fc8261065e565b91506109078361065e565b925082820390508181111561091f5761091e610822565b5b92915050565b60006109308261065e565b915061093b8361065e565b92508282026109498161065e565b915082820484148315176109605761095f610822565b5b5092915050565b7f426964206d7573742062652067726561746572207468616e206f72206571756160008201527f6c20746f207468652063757272656e742070726963652e000000000000000000602082015250565b60006109c36037836107a5565b91506109ce82610967565b604082019050919050565b600060208201905081810360008301526109f2816109b6565b905091905056fea264697066735822122048a0eec3ec48b09a6725182570ca42c029e43ae9d8b5cf9a787bb994038c552164736f6c63430008110033","opcodes":"PUSH1 0x80 PUSH1 0x40 MSTORE CALLVALUE DUP1 ISZERO PUSH3 0x11 JUMPI PUSH1 0x0 DUP1 REVERT JUMPDEST POP PUSH1 0x40 MLOAD PUSH3 0xDA8 CODESIZE SUB DUP1 PUSH3 0xDA8 DUP4 CODECOPY DUP2 DUP2 ADD PUSH1 0x40 MSTORE DUP2 ADD SWAP1 PUSH3 0x37 SWAP2 SWAP1 PUSH3 0x258 JUMP JUMPDEST PUSH3 0x53 PUSH8 0x8B4BA3B16789B7A3 PUSH1 0xC0 SHL PUSH3 0x215 PUSH1 0x20 SHL PUSH1 0x20 SHR JUMP JUMPDEST PUSH3 0x6F PUSH8 0xC93D6BE7986C61EE PUSH1 0xC0 SHL PUSH3 0x215 PUSH1 0x20 SHL PUSH1 0x20 SHR JUMP JUMPDEST DUP3 PUSH1 0x0 DUP2 SWAP1 SSTORE POP PUSH3 0x92 PUSH8 0x252CE3A4DB5A8605 PUSH1 0xC0 SHL PUSH3 0x215 PUSH1 0x20 SHL PUSH1 0x20 SHR JUMP JUMPDEST DUP2 PUSH1 0x1 DUP2 SWAP1 SSTORE POP PUSH3 0xB5 PUSH8 0x172537082A86DBB3 PUSH1 0xC0 SHL PUSH3 0x215 PUSH1 0x20 SHL PUSH1 0x20 SHR JUMP JUMPDEST DUP1 PUSH1 0x2 DUP2 SWAP1 SSTORE POP PUSH3 0xD8 PUSH8 0x31405E6A6AD847AB PUSH1 0xC0 SHL PUSH3 0x215 PUSH1 0x20 SHL PUSH1 0x20 SHR JUMP JUMPDEST PUSH1 0x2 SLOAD PUSH1 0x1 SLOAD PUSH3 0xEA SWAP2 SWAP1 PUSH3 0x2E3 JUMP JUMPDEST PUSH1 0x0 SLOAD PUSH3 0xF9 SWAP2 SWAP1 PUSH3 0x32E JUMP JUMPDEST PUSH1 0x3 DUP2 SWAP1 SSTORE POP PUSH3 0x11B PUSH8 0x6D219322637A24A3 PUSH1 0xC0 SHL PUSH3 0x215 PUSH1 0x20 SHL PUSH1 0x20 SHR JUMP JUMPDEST CALLER PUSH1 0x5 PUSH1 0x0 PUSH2 0x100 EXP DUP2 SLOAD DUP2 PUSH20 0xFFFFFFFFFFFFFFFFFFFFFFFFFFFFFFFFFFFFFFFF MUL NOT AND SWAP1 DUP4 PUSH20 0xFFFFFFFFFFFFFFFFFFFFFFFFFFFFFFFFFFFFFFFF AND MUL OR SWAP1 SSTORE POP PUSH3 0x178 PUSH8 0xB2A026E33BB0BAD0 PUSH1 0xC0 SHL PUSH3 0x215 PUSH1 0x20 SHL PUSH1 0x20 SHR JUMP JUMPDEST PUSH1 0x0 PUSH1 0x9 PUSH1 0x0 PUSH2 0x100 EXP DUP2 SLOAD DUP2 PUSH1 0xFF MUL NOT AND SWAP1 DUP4 ISZERO ISZERO MUL OR SWAP1 SSTORE POP PUSH3 0x1AF PUSH8 0xC96FC37C17A259E0 PUSH1 0xC0 SHL PUSH3 0x215 PUSH1 0x20 SHL PUSH1 0x20 SHR JUMP JUMPDEST DUP2 NUMBER PUSH3 0x1BD SWAP2 SWAP1 PUSH3 0x32E JUMP JUMPDEST PUSH1 0x7 DUP2 SWAP1 SSTORE POP PUSH3 0x1DF PUSH8 0x9F6BAB49CBB221A2 PUSH1 0xC0 SHL PUSH3 0x215 PUSH1 0x20 SHL PUSH1 0x20 SHR JUMP JUMPDEST PUSH2 0x1F4 PUSH1 0x4 DUP2 SWAP1 SSTORE POP PUSH3 0x204 PUSH8 0x47FF654C8FCC2BBD PUSH1 0xC0 SHL PUSH3 0x215 PUSH1 0x20 SHL PUSH1 0x20 SHR JUMP JUMPDEST PUSH1 0x1 PUSH1 0xA DUP2 SWAP1 SSTORE POP POP POP POP PUSH3 0x369 JUMP JUMPDEST POP JUMP JUMPDEST PUSH1 0x0 DUP1 REVERT JUMPDEST PUSH1 0x0 DUP2 SWAP1 POP SWAP2 SWAP1 POP JUMP JUMPDEST PUSH3 0x232 DUP2 PUSH3 0x21D JUMP JUMPDEST DUP2 EQ PUSH3 0x23E JUMPI PUSH1 0x0 DUP1 REVERT JUMPDEST POP JUMP JUMPDEST PUSH1 0x0 DUP2 MLOAD SWAP1 POP PUSH3 0x252 DUP2 PUSH3 0x227 JUMP JUMPDEST SWAP3 SWAP2 POP POP JUMP JUMPDEST PUSH1 0x0 DUP1 PUSH1 0x0 PUSH1 0x60 DUP5 DUP7 SUB SLT ISZERO PUSH3 0x274 JUMPI PUSH3 0x273 PUSH3 0x218 JUMP JUMPDEST JUMPDEST PUSH1 0x0 PUSH3 0x284 DUP7 DUP3 DUP8 ADD PUSH3 0x241 JUMP JUMPDEST SWAP4 POP POP PUSH1 0x20 PUSH3 0x297 DUP7 DUP3 DUP8 ADD PUSH3 0x241 JUMP JUMPDEST SWAP3 POP POP PUSH1 0x40 PUSH3 0x2AA DUP7 DUP3 DUP8 ADD PUSH3 0x241 JUMP JUMPDEST SWAP2 POP POP SWAP3 POP SWAP3 POP SWAP3 JUMP JUMPDEST PUSH32 0x4E487B7100000000000000000000000000000000000000000000000000000000 PUSH1 0x0 MSTORE PUSH1 0x11 PUSH1 0x4 MSTORE PUSH1 0x24 PUSH1 0x0 REVERT JUMPDEST PUSH1 0x0 PUSH3 0x2F0 DUP3 PUSH3 0x21D JUMP JUMPDEST SWAP2 POP PUSH3 0x2FD DUP4 PUSH3 0x21D JUMP JUMPDEST SWAP3 POP DUP3 DUP3 MUL PUSH3 0x30D DUP2 PUSH3 0x21D JUMP JUMPDEST SWAP2 POP DUP3 DUP3 DIV DUP5 EQ DUP4 ISZERO OR PUSH3 0x327 JUMPI PUSH3 0x326 PUSH3 0x2B4 JUMP JUMPDEST JUMPDEST POP SWAP3 SWAP2 POP POP JUMP JUMPDEST PUSH1 0x0 PUSH3 0x33B DUP3 PUSH3 0x21D JUMP JUMPDEST SWAP2 POP PUSH3 0x348 DUP4 PUSH3 0x21D JUMP JUMPDEST SWAP3 POP DUP3 DUP3 ADD SWAP1 POP DUP1 DUP3 GT ISZERO PUSH3 0x363 JUMPI PUSH3 0x362 PUSH3 0x2B4 JUMP JUMPDEST JUMPDEST SWAP3 SWAP2 POP POP JUMP JUMPDEST PUSH2 0xA2F DUP1 PUSH3 0x379 PUSH1 0x0 CODECOPY PUSH1 0x0 RETURN INVALID PUSH1 0x80 PUSH1 0x40 MSTORE PUSH1 0x4 CALLDATASIZE LT PUSH2 0x9C JUMPI PUSH1 0x0 CALLDATALOAD PUSH1 0xE0 SHR DUP1 PUSH4 0x8A73CC4F GT PUSH2 0x64 JUMPI DUP1 PUSH4 0x8A73CC4F EQ PUSH2 0x169 JUMPI DUP1 PUSH4 0x8DA5CB5B EQ PUSH2 0x1A6 JUMPI DUP1 PUSH4 0xB6ADD0F4 EQ PUSH2 0x1D1 JUMPI DUP1 PUSH4 0xD3642A88 EQ PUSH2 0x1FC JUMPI DUP1 PUSH4 0xDB2E1EED EQ PUSH2 0x227 JUMPI DUP1 PUSH4 0xFFD34AD5 EQ PUSH2 0x252 JUMPI PUSH2 0x9C JUMP JUMPDEST DUP1 PUSH4 0xDD90303 EQ PUSH2 0xA1 JUMPI DUP1 PUSH4 0x3103EA62 EQ PUSH2 0xCC JUMPI DUP1 PUSH4 0x454A2AB3 EQ PUSH2 0xF7 JUMPI DUP1 PUSH4 0x48CD4CB1 EQ PUSH2 0x113 JUMPI DUP1 PUSH4 0x80B153F1 EQ PUSH2 0x13E JUMPI JUMPDEST PUSH1 0x0 DUP1 REVERT JUMPDEST CALLVALUE DUP1 ISZERO PUSH2 0xAD JUMPI PUSH1 0x0 DUP1 REVERT JUMPDEST POP PUSH2 0xB6 PUSH2 0x27D JUMP JUMPDEST PUSH1 0x40 MLOAD PUSH2 0xC3 SWAP2 SWAP1 PUSH2 0x677 JUMP JUMPDEST PUSH1 0x40 MLOAD DUP1 SWAP2 SUB SWAP1 RETURN JUMPDEST CALLVALUE DUP1 ISZERO PUSH2 0xD8 JUMPI PUSH1 0x0 DUP1 REVERT JUMPDEST POP PUSH2 0xE1 PUSH2 0x283 JUMP JUMPDEST PUSH1 0x40 MLOAD PUSH2 0xEE SWAP2 SWAP1 PUSH2 0x677 JUMP JUMPDEST PUSH1 0x40 MLOAD DUP1 SWAP2 SUB SWAP1 RETURN JUMPDEST PUSH2 0x111 PUSH1 0x4 DUP1 CALLDATASIZE SUB DUP2 ADD SWAP1 PUSH2 0x10C SWAP2 SWAP1 PUSH2 0x6C3 JUMP JUMPDEST PUSH2 0x289 JUMP JUMPDEST STOP JUMPDEST CALLVALUE DUP1 ISZERO PUSH2 0x11F JUMPI PUSH1 0x0 DUP1 REVERT JUMPDEST POP PUSH2 0x128 PUSH2 0x5D9 JUMP JUMPDEST PUSH1 0x40 MLOAD PUSH2 0x135 SWAP2 SWAP1 PUSH2 0x677 JUMP JUMPDEST PUSH1 0x40 MLOAD DUP1 SWAP2 SUB SWAP1 RETURN JUMPDEST CALLVALUE DUP1 ISZERO PUSH2 0x14A JUMPI PUSH1 0x0 DUP1 REVERT JUMPDEST POP PUSH2 0x153 PUSH2 0x5DF JUMP JUMPDEST PUSH1 0x40 MLOAD PUSH2 0x160 SWAP2 SWAP1 PUSH2 0x731 JUMP JUMPDEST PUSH1 0x40 MLOAD DUP1 SWAP2 SUB SWAP1 RETURN JUMPDEST CALLVALUE DUP1 ISZERO PUSH2 0x175 JUMPI PUSH1 0x0 DUP1 REVERT JUMPDEST POP PUSH2 0x190 PUSH1 0x4 DUP1 CALLDATASIZE SUB DUP2 ADD SWAP1 PUSH2 0x18B SWAP2 SWAP1 PUSH2 0x778 JUMP JUMPDEST PUSH2 0x605 JUMP JUMPDEST PUSH1 0x40 MLOAD PUSH2 0x19D SWAP2 SWAP1 PUSH2 0x677 JUMP JUMPDEST PUSH1 0x40 MLOAD DUP1 SWAP2 SUB SWAP1 RETURN JUMPDEST CALLVALUE DUP1 ISZERO PUSH2 0x1B2 JUMPI PUSH1 0x0 DUP1 REVERT JUMPDEST POP PUSH2 0x1BB PUSH2 0x61D JUMP JUMPDEST PUSH1 0x40 MLOAD PUSH2 0x1C8 SWAP2 SWAP1 PUSH2 0x731 JUMP JUMPDEST PUSH1 0x40 MLOAD DUP1 SWAP2 SUB SWAP1 RETURN JUMPDEST CALLVALUE DUP1 ISZERO PUSH2 0x1DD JUMPI PUSH1 0x0 DUP1 REVERT JUMPDEST POP PUSH2 0x1E6 PUSH2 0x643 JUMP JUMPDEST PUSH1 0x40 MLOAD PUSH2 0x1F3 SWAP2 SWAP1 PUSH2 0x677 JUMP JUMPDEST PUSH1 0x40 MLOAD DUP1 SWAP2 SUB SWAP1 RETURN JUMPDEST CALLVALUE DUP1 ISZERO PUSH2 0x208 JUMPI PUSH1 0x0 DUP1 REVERT JUMPDEST POP PUSH2 0x211 PUSH2 0x649 JUMP JUMPDEST PUSH1 0x40 MLOAD PUSH2 0x21E SWAP2 SWAP1 PUSH2 0x677 JUMP JUMPDEST PUSH1 0x40 MLOAD DUP1 SWAP2 SUB SWAP1 RETURN JUMPDEST CALLVALUE DUP1 ISZERO PUSH2 0x233 JUMPI PUSH1 0x0 DUP1 REVERT JUMPDEST POP PUSH2 0x23C PUSH2 0x64F JUMP JUMPDEST PUSH1 0x40 MLOAD PUSH2 0x249 SWAP2 SWAP1 PUSH2 0x677 JUMP JUMPDEST PUSH1 0x40 MLOAD DUP1 SWAP2 SUB SWAP1 RETURN JUMPDEST CALLVALUE DUP1 ISZERO PUSH2 0x25E JUMPI PUSH1 0x0 DUP1 REVERT JUMPDEST POP PUSH2 0x267 PUSH2 0x655 JUMP JUMPDEST PUSH1 0x40 MLOAD PUSH2 0x274 SWAP2 SWAP1 PUSH2 0x677 JUMP JUMPDEST PUSH1 0x40 MLOAD DUP1 SWAP2 SUB SWAP1 RETURN JUMPDEST PUSH1 0x8 SLOAD DUP2 JUMP JUMPDEST PUSH1 0x1 SLOAD DUP2 JUMP JUMPDEST PUSH2 0x29D PUSH8 0x14B03E22F31D969A PUSH1 0xC0 SHL PUSH2 0x65B JUMP JUMPDEST PUSH2 0x2B1 PUSH8 0x1679F19F8A3F7DF5 PUSH1 0xC0 SHL PUSH2 0x65B JUMP JUMPDEST PUSH2 0x2C5 PUSH8 0xA51C316B8474CE38 PUSH1 0xC0 SHL PUSH2 0x65B JUMP JUMPDEST PUSH2 0x2D9 PUSH8 0x7233F9356457C294 PUSH1 0xC0 SHL PUSH2 0x65B JUMP JUMPDEST PUSH1 0x7 SLOAD NUMBER GT ISZERO PUSH2 0x31E JUMPI PUSH1 0x40 MLOAD PUSH32 0x8C379A000000000000000000000000000000000000000000000000000000000 DUP2 MSTORE PUSH1 0x4 ADD PUSH2 0x315 SWAP1 PUSH2 0x802 JUMP JUMPDEST PUSH1 0x40 MLOAD DUP1 SWAP2 SUB SWAP1 REVERT JUMPDEST PUSH2 0x332 PUSH8 0x29F44147B772906F PUSH1 0xC0 SHL PUSH2 0x65B JUMP JUMPDEST PUSH2 0x346 PUSH8 0x33E69A0141EFB774 PUSH1 0xC0 SHL PUSH2 0x65B JUMP JUMPDEST PUSH1 0x1 PUSH1 0xA PUSH1 0x0 DUP3 DUP3 SLOAD PUSH2 0x359 SWAP2 SWAP1 PUSH2 0x851 JUMP JUMPDEST SWAP3 POP POP DUP2 SWAP1 SSTORE POP PUSH2 0x374 PUSH8 0x73C89E10D69531A1 PUSH1 0xC0 SHL PUSH2 0x65B JUMP JUMPDEST PUSH2 0x388 PUSH8 0xFCCE9DA55A4D07AE PUSH1 0xC0 SHL PUSH2 0x65B JUMP JUMPDEST PUSH2 0x39C PUSH8 0x5B4F028E5EB2A359 PUSH1 0xC0 SHL PUSH2 0x65B JUMP JUMPDEST PUSH1 0x9 PUSH1 0x0 SWAP1 SLOAD SWAP1 PUSH2 0x100 EXP SWAP1 DIV PUSH1 0xFF AND ISZERO PUSH2 0x3EC JUMPI PUSH1 0x40 MLOAD PUSH32 0x8C379A000000000000000000000000000000000000000000000000000000000 DUP2 MSTORE PUSH1 0x4 ADD PUSH2 0x3E3 SWAP1 PUSH2 0x8D1 JUMP JUMPDEST PUSH1 0x40 MLOAD DUP1 SWAP2 SUB SWAP1 REVERT JUMPDEST PUSH2 0x400 PUSH8 0xB81C418D9FAF595E PUSH1 0xC0 SHL PUSH2 0x65B JUMP JUMPDEST PUSH2 0x414 PUSH8 0x7B4C8B9A1F9EFAF8 PUSH1 0xC0 SHL PUSH2 0x65B JUMP JUMPDEST PUSH1 0xA SLOAD PUSH1 0x1 SLOAD PUSH2 0x424 SWAP2 SWAP1 PUSH2 0x8F1 JUMP JUMPDEST PUSH1 0x2 SLOAD PUSH2 0x431 SWAP2 SWAP1 PUSH2 0x925 JUMP JUMPDEST PUSH1 0x3 SLOAD PUSH2 0x43E SWAP2 SWAP1 PUSH2 0x8F1 JUMP JUMPDEST PUSH1 0x8 DUP2 SWAP1 SSTORE POP PUSH2 0x458 PUSH8 0x563F288B2415BB5C PUSH1 0xC0 SHL PUSH2 0x65B JUMP JUMPDEST PUSH2 0x46C PUSH8 0xB9F96C6B5EE910FB PUSH1 0xC0 SHL PUSH2 0x65B JUMP JUMPDEST PUSH2 0x480 PUSH8 0x38D553ECDEF2499 PUSH1 0xC0 SHL PUSH2 0x65B JUMP JUMPDEST PUSH1 0x8 SLOAD DUP2 LT ISZERO PUSH2 0x4C5 JUMPI PUSH1 0x40 MLOAD PUSH32 0x8C379A000000000000000000000000000000000000000000000000000000000 DUP2 MSTORE PUSH1 0x4 ADD PUSH2 0x4BC SWAP1 PUSH2 0x9D9 JUMP JUMPDEST PUSH1 0x40 MLOAD DUP1 SWAP2 SUB SWAP1 REVERT JUMPDEST PUSH2 0x4D9 PUSH8 0xD3F31A4402D2675F PUSH1 0xC0 SHL PUSH2 0x65B JUMP JUMPDEST PUSH2 0x4ED PUSH8 0x9A0779854DAFC7B6 PUSH1 0xC0 SHL PUSH2 0x65B JUMP JUMPDEST PUSH2 0x501 PUSH8 0xB804CE21DE09D337 PUSH1 0xC0 SHL PUSH2 0x65B JUMP JUMPDEST PUSH1 0x8 SLOAD DUP2 GT DUP1 ISZERO PUSH2 0x51F JUMPI POP PUSH1 0x9 PUSH1 0x0 SWAP1 SLOAD SWAP1 PUSH2 0x100 EXP SWAP1 DIV PUSH1 0xFF AND ISZERO JUMPDEST ISZERO PUSH2 0x5C1 JUMPI PUSH2 0x538 PUSH8 0x857FC09A373C1E3E PUSH1 0xC0 SHL PUSH2 0x65B JUMP JUMPDEST PUSH2 0x54C PUSH8 0xEEBD13E3D5B907CD PUSH1 0xC0 SHL PUSH2 0x65B JUMP JUMPDEST CALLER PUSH1 0x9 PUSH1 0x1 PUSH2 0x100 EXP DUP2 SLOAD DUP2 PUSH20 0xFFFFFFFFFFFFFFFFFFFFFFFFFFFFFFFFFFFFFFFF MUL NOT AND SWAP1 DUP4 PUSH20 0xFFFFFFFFFFFFFFFFFFFFFFFFFFFFFFFFFFFFFFFF AND MUL OR SWAP1 SSTORE POP PUSH2 0x5A1 PUSH8 0xC681F4F6E289AE7C PUSH1 0xC0 SHL PUSH2 0x65B JUMP JUMPDEST PUSH1 0x1 PUSH1 0x9 PUSH1 0x0 PUSH2 0x100 EXP DUP2 SLOAD DUP2 PUSH1 0xFF MUL NOT AND SWAP1 DUP4 ISZERO ISZERO MUL OR SWAP1 SSTORE POP PUSH2 0x5D6 JUMP JUMPDEST PUSH2 0x5D5 PUSH8 0x37DBAE326DF540FB PUSH1 0xC0 SHL PUSH2 0x65B JUMP JUMPDEST JUMPDEST POP JUMP JUMPDEST PUSH1 0xA SLOAD DUP2 JUMP JUMPDEST PUSH1 0x9 PUSH1 0x1 SWAP1 SLOAD SWAP1 PUSH2 0x100 EXP SWAP1 DIV PUSH20 0xFFFFFFFFFFFFFFFFFFFFFFFFFFFFFFFFFFFFFFFF AND DUP2 JUMP JUMPDEST PUSH1 0x6 PUSH1 0x20 MSTORE DUP1 PUSH1 0x0 MSTORE PUSH1 0x40 PUSH1 0x0 KECCAK256 PUSH1 0x0 SWAP2 POP SWAP1 POP SLOAD DUP2 JUMP JUMPDEST PUSH1 0x5 PUSH1 0x0 SWAP1 SLOAD SWAP1 PUSH2 0x100 EXP SWAP1 DIV PUSH20 0xFFFFFFFFFFFFFFFFFFFFFFFFFFFFFFFFFFFFFFFF AND DUP2 JUMP JUMPDEST PUSH1 0x3 SLOAD DUP2 JUMP JUMPDEST PUSH1 0x2 SLOAD DUP2 JUMP JUMPDEST PUSH1 0x0 SLOAD DUP2 JUMP JUMPDEST PUSH1 0x4 SLOAD DUP2 JUMP JUMPDEST POP JUMP JUMPDEST PUSH1 0x0 DUP2 SWAP1 POP SWAP2 SWAP1 POP JUMP JUMPDEST PUSH2 0x671 DUP2 PUSH2 0x65E JUMP JUMPDEST DUP3 MSTORE POP POP JUMP JUMPDEST PUSH1 0x0 PUSH1 0x20 DUP3 ADD SWAP1 POP PUSH2 0x68C PUSH1 0x0 DUP4 ADD DUP5 PUSH2 0x668 JUMP JUMPDEST SWAP3 SWAP2 POP POP JUMP JUMPDEST PUSH1 0x0 DUP1 REVERT JUMPDEST PUSH2 0x6A0 DUP2 PUSH2 0x65E JUMP JUMPDEST DUP2 EQ PUSH2 0x6AB JUMPI PUSH1 0x0 DUP1 REVERT JUMPDEST POP JUMP JUMPDEST PUSH1 0x0 DUP2 CALLDATALOAD SWAP1 POP PUSH2 0x6BD DUP2 PUSH2 0x697 JUMP JUMPDEST SWAP3 SWAP2 POP POP JUMP JUMPDEST PUSH1 0x0 PUSH1 0x20 DUP3 DUP5 SUB SLT ISZERO PUSH2 0x6D9 JUMPI PUSH2 0x6D8 PUSH2 0x692 JUMP JUMPDEST JUMPDEST PUSH1 0x0 PUSH2 0x6E7 DUP5 DUP3 DUP6 ADD PUSH2 0x6AE JUMP JUMPDEST SWAP2 POP POP SWAP3 SWAP2 POP POP JUMP JUMPDEST PUSH1 0x0 PUSH20 0xFFFFFFFFFFFFFFFFFFFFFFFFFFFFFFFFFFFFFFFF DUP3 AND SWAP1 POP SWAP2 SWAP1 POP JUMP JUMPDEST PUSH1 0x0 PUSH2 0x71B DUP3 PUSH2 0x6F0 JUMP JUMPDEST SWAP1 POP SWAP2 SWAP1 POP JUMP JUMPDEST PUSH2 0x72B DUP2 PUSH2 0x710 JUMP JUMPDEST DUP3 MSTORE POP POP JUMP JUMPDEST PUSH1 0x0 PUSH1 0x20 DUP3 ADD SWAP1 POP PUSH2 0x746 PUSH1 0x0 DUP4 ADD DUP5 PUSH2 0x722 JUMP JUMPDEST SWAP3 SWAP2 POP POP JUMP JUMPDEST PUSH2 0x755 DUP2 PUSH2 0x710 JUMP JUMPDEST DUP2 EQ PUSH2 0x760 JUMPI PUSH1 0x0 DUP1 REVERT JUMPDEST POP JUMP JUMPDEST PUSH1 0x0 DUP2 CALLDATALOAD SWAP1 POP PUSH2 0x772 DUP2 PUSH2 0x74C JUMP JUMPDEST SWAP3 SWAP2 POP POP JUMP JUMPDEST PUSH1 0x0 PUSH1 0x20 DUP3 DUP5 SUB SLT ISZERO PUSH2 0x78E JUMPI PUSH2 0x78D PUSH2 0x692 JUMP JUMPDEST JUMPDEST PUSH1 0x0 PUSH2 0x79C DUP5 DUP3 DUP6 ADD PUSH2 0x763 JUMP JUMPDEST SWAP2 POP POP SWAP3 SWAP2 POP POP JUMP JUMPDEST PUSH1 0x0 DUP3 DUP3 MSTORE PUSH1 0x20 DUP3 ADD SWAP1 POP SWAP3 SWAP2 POP POP JUMP JUMPDEST PUSH32 0x426C6F636B2068617320616C726561647920656E6465642E0000000000000000 PUSH1 0x0 DUP3 ADD MSTORE POP JUMP JUMPDEST PUSH1 0x0 PUSH2 0x7EC PUSH1 0x18 DUP4 PUSH2 0x7A5 JUMP JUMPDEST SWAP2 POP PUSH2 0x7F7 DUP3 PUSH2 0x7B6 JUMP JUMPDEST PUSH1 0x20 DUP3 ADD SWAP1 POP SWAP2 SWAP1 POP JUMP JUMPDEST PUSH1 0x0 PUSH1 0x20 DUP3 ADD SWAP1 POP DUP2 DUP2 SUB PUSH1 0x0 DUP4 ADD MSTORE PUSH2 0x81B DUP2 PUSH2 0x7DF JUMP JUMPDEST SWAP1 POP SWAP2 SWAP1 POP JUMP JUMPDEST PUSH32 0x4E487B7100000000000000000000000000000000000000000000000000000000 PUSH1 0x0 MSTORE PUSH1 0x11 PUSH1 0x4 MSTORE PUSH1 0x24 PUSH1 0x0 REVERT JUMPDEST PUSH1 0x0 PUSH2 0x85C DUP3 PUSH2 0x65E JUMP JUMPDEST SWAP2 POP PUSH2 0x867 DUP4 PUSH2 0x65E JUMP JUMPDEST SWAP3 POP DUP3 DUP3 ADD SWAP1 POP DUP1 DUP3 GT ISZERO PUSH2 0x87F JUMPI PUSH2 0x87E PUSH2 0x822 JUMP JUMPDEST JUMPDEST SWAP3 SWAP2 POP POP JUMP JUMPDEST PUSH32 0x41756374696F6E2068617320616C726561647920656E6465642E000000000000 PUSH1 0x0 DUP3 ADD MSTORE POP JUMP JUMPDEST PUSH1 0x0 PUSH2 0x8BB PUSH1 0x1A DUP4 PUSH2 0x7A5 JUMP JUMPDEST SWAP2 POP PUSH2 0x8C6 DUP3 PUSH2 0x885 JUMP JUMPDEST PUSH1 0x20 DUP3 ADD SWAP1 POP SWAP2 SWAP1 POP JUMP JUMPDEST PUSH1 0x0 PUSH1 0x20 DUP3 ADD SWAP1 POP DUP2 DUP2 SUB PUSH1 0x0 DUP4 ADD MSTORE PUSH2 0x8EA DUP2 PUSH2 0x8AE JUMP JUMPDEST SWAP1 POP SWAP2 SWAP1 POP JUMP JUMPDEST PUSH1 0x0 PUSH2 0x8FC DUP3 PUSH2 0x65E JUMP JUMPDEST SWAP2 POP PUSH2 0x907 DUP4 PUSH2 0x65E JUMP JUMPDEST SWAP3 POP DUP3 DUP3 SUB SWAP1 POP DUP2 DUP2 GT ISZERO PUSH2 0x91F JUMPI PUSH2 0x91E PUSH2 0x822 JUMP JUMPDEST JUMPDEST SWAP3 SWAP2 POP POP JUMP JUMPDEST PUSH1 0x0 PUSH2 0x930 DUP3 PUSH2 0x65E JUMP JUMPDEST SWAP2 POP PUSH2 0x93B DUP4 PUSH2 0x65E JUMP JUMPDEST SWAP3 POP DUP3 DUP3 MUL PUSH2 0x949 DUP2 PUSH2 0x65E JUMP JUMPDEST SWAP2 POP DUP3 DUP3 DIV DUP5 EQ DUP4 ISZERO OR PUSH2 0x960 JUMPI PUSH2 0x95F PUSH2 0x822 JUMP JUMPDEST JUMPDEST POP SWAP3 SWAP2 POP POP JUMP JUMPDEST PUSH32 0x426964206D7573742062652067726561746572207468616E206F722065717561 PUSH1 0x0 DUP3 ADD MSTORE PUSH32 0x6C20746F207468652063757272656E742070726963652E000000000000000000 PUSH1 0x20 DUP3 ADD MSTORE POP JUMP JUMPDEST PUSH1 0x0 PUSH2 0x9C3 PUSH1 0x37 DUP4 PUSH2 0x7A5 JUMP JUMPDEST SWAP2 POP PUSH2 0x9CE DUP3 PUSH2 0x967 JUMP JUMPDEST PUSH1 0x40 DUP3 ADD SWAP1 POP SWAP2 SWAP1 POP JUMP JUMPDEST PUSH1 0x0 PUSH1 0x20 DUP3 ADD SWAP1 POP DUP2 DUP2 SUB PUSH1 0x0 DUP4 ADD MSTORE PUSH2 0x9F2 DUP2 PUSH2 0x9B6 JUMP JUMPDEST SWAP1 POP SWAP2 SWAP1 POP JUMP INVALID LOG2 PUSH5 0x6970667358 0x22 SLT KECCAK256 BASEFEE LOG0 0xEE 0xC3 0xEC BASEFEE 0xB0 SWAP11 PUSH8 0x25182570CA42C029 0xE4 GASPRICE 0xE9 0xD8 0xB5 0xCF SWAP11 PUSH25 0x7BB994038C552164736F6C6343000811003300000000000000 "},"methodIdentifiers":{"bid(uint256)":"454a2ab3","bidWinner()":"80b153f1","bidprices(address)":"8a73cc4f","currPrice()":"0dd90303","fixedAmount()":"ffd34ad5","initPrice()":"b6add0f4","numBlocksAuctionOpen()":"3103ea62","offerPriceDecrement()":"d3642a88","owner()":"8da5cb5b","reservePrice()":"db2e1eed","startBlock()":"48cd4cb1"}}}}}